:100000000C94FD0C0C942E0D0C942E0D0C942E0DB6
:100010000C942E0D0C942E0D0C942E0D0C942E0D74
:100020000C942E0D0C942E0D0C942E0D0C942E0D64
:100030000C942E0D0C94DF640C942E0D0C942E0D4C
:100040000C942E0D0C9473450C942E0D0C942E0DC7
:100050000C942E0D0C942E0D0C94D6330C94C030B1
:100060000C942E0D0C94915C0C942E0D0C942E0D72
:100070000C942E0D0C942E0D0C942E0D0C942E0D14
:100080000C942E0D0C942E0D0C942E0D0C942E0D04
:100090000C942E0D0C942E0D0C942E0D0C942E0DF4
:1000A0000C942E0D0C942E0D0C942E0D0C942E0DE4
:1000B0000C942E0D0C942E0D0C942E0D0C942E0DD4
:1000C0000C942E0D0C942E0D0C942E0D0C942E0DC4
:1000D0000C942E0D0C942E0D0C942E0D0C942E0DB4
:1000E0000C942E0D0F2F122F012F052F0B2F492FA0
:1000F000162F1A2F202F242F282F2E2F322F362F56
:10010000492F3C2F402F442FDC2FE12FE62FF02FDB
:10011000FA2F733004300C3014301E302830323057
:1001200041304B30733055305F306930843489341E
:10013000B334B8349834A4346E34084AD73B3BCE39
:10014000016E84BCBFFDC12F3D6C74319ABD5683D6
:100150003DDA3D00C77F11BED9E4BB4C3E916BAA8E
:10016000AABE000000803F05A84CCDB2D44EB938DD
:1001700036A9020C50B9918688083CA6AAAA2ABEC4
:10018000000000803F004E414E494E495459494EAF
:1001900046CDCCCC3D0AD7233C17B7D13877CC2BF2
:1001A000329595E6241FB14F0A000020410000C897
:1001B0004200401C4620BCBE4CCA1B0E5AAEC59D18
:1001C00074434F4D4D554E49434154494F4E0044A1
:1001D000525952554E004552524F525300494E46C5
:1001E0004F004543484F002569730025696D202560
:1001F0006973002569682025696D202569730025CC
:100200006964202569682025696D202569730025AA
:10021000697920256964202569682025696D202574
:100220006973005072696E742074696D653A2000BC
:1002300050726F7465637465642050696E0A00E2E1
:1002400001DD01D601CF01C1016F66660044454260
:1002500055473A004B494C4C45442E20004D313116
:10026000332053006F6B0020573A0020573A004369
:1002700061703A454D455247454E43595F50415292
:100280005345523A300A004361703A434153455F47
:100290004C494748545F4252494748544E4553538E
:1002A0003A300A004361703A544F47474C455F4C1F
:1002B00049474854533A300A004361703A534F4615
:1002C00054574152455F504F5745523A300A004308
:1002D00061703A4C4556454C494E475F4441544144
:1002E0003A300A004361703A5A5F50524F42453AE1
:1002F000300A004361703A4155544F4C4556454CC5
:100300003A300A004361703A5052494E545F4A4FA6
:10031000423A310A004361703A50524F47524553B6
:10032000533A300A004361703A4155544F52455098
:100330004F52545F54454D503A310A004361703A70
:10034000454550524F4D3A300A004649524D5741AB
:1003500052455F4E414D453A4D61726C696E203198
:100360002E312E3620284769746875622920534F34
:10037000555243455F434F44455F55524C3A68746C
:100380007470733A2F2F6769746875622E636F6D8E
:100390002F4D61726C696E4669726D776172652F5F
:1003A0004D61726C696E2050524F544F434F4C5FF9
:1003B00056455253494F4E3A312E30204D41434815
:1003C000494E455F545950453A3344205072696E46
:1003D0007465722045585452554445525F434F55F9
:1003E0004E543A3220555549443A6365646532614A
:1003F00032662D343161322D343734382D39623143
:10040000322D6335356336326633363766660A0019
:100410002F2F20007A5F6D61783A2000795F6D613F
:10042000783A2000785F6D61783A20005265706FED
:100430007274696E6720656E6473746F7020737474
:10044000617475730A0053657474696E6720547221
:100450006176656C20416363656C65726174696F78
:100460006E3A200053657474696E67205265747229
:1004700061637420416363656C65726174696F6E5A
:100480003A200053657474696E67205072696E7407
:1004900020416363656C65726174696F6E3A200018
:1004A00053657474696E67205072696E7420616E52
:1004B000642054726176656C20416363656C65727B
:1004C0006174696F6E3A2000205A0020590058006C
:1004D00020204D61783A2000205A00205900580011
:1004E00020204D696E3A20004F6E20004F66660056
:1004F000536F667420656E6473746F70733A200076
:10050000486F74656E64206F6666736574733A0035
:100510000001363726FF033C3D38FF0F2E303EFFEB
:1005200013FF0C0805FFFFFF1A1C18FFFF24221EF3
:10053000FFFF08440AFF4309FF45FFFFFFFFFFFFDE
:1005400020643A0020693A0020703A00236465660E
:10055000696E65202044454641554C545F4B6420EC
:100560000023646566696E65202044454641554C0C
:10057000545F4B69200023646566696E65202044E2
:10058000454641554C545F4B702000504944204132
:1005900075746F74756E652066696E6973686564DD
:1005A000212050757420746865206C617374204B31
:1005B000702C204B6920616E64204B6420636F6E49
:1005C0007374616E74732066726F6D2062656C6FF8
:1005D0007720696E746F20436F6E6669677572610C
:1005E00074696F6E2E680A00504944204175746F1B
:1005F00074756E65206661696C6564212074696D2F
:10060000656F75740A00504944204175746F7475A4
:100610006E65206661696C6564212054656D706546
:1006200072617475726520746F6F20686967680AFB
:1006300000204B643A2000204B693A2000204B7088
:100640003A20000A20436C61737369632050494467
:10065000200A002054753A2000204B753A200020D3
:100660006D61783A2000206D696E3A200020643A6E
:10067000200020626961733A2000546F6F20666128
:10068000722066726F6D207265666572656E636555
:1006900020706F696E740A00454550524F4D2064BA
:1006A000697361626C65640A004E6F2063617365F3
:1006B000206C696768740A00556E6B6E6F776E20E8
:1006C000636F6D6D616E643A2022004861726463ED
:1006D0006F6465642044656661756C74205365744D
:1006E00074696E6773204C6F616465640A00F4017D
:1006F0000000F401000005000000102700000000C9
:100700004843000048430000A0400000C8410000EA
:10071000C8420000C8420000C843AE67D14320452C
:10072000310020453000205A002059002058005345
:100730007465707065722064726976657220637585
:100740007272656E743A0A0020440020490020202D
:100750004D3330312050002044002049002050000B
:1007600020204D33303120450050494420736574BA
:1007700074696E67733A0A002059002058002020DF
:100780004D323138205400486F74656E64206F66B6
:1007900066736574733A0A00205A002059002020BD
:1007A0004D323036205800486F6D65206F66667395
:1007B00065743A0A00204500205A0020590020584C
:1007C0000020420020540020204D323035205300BC
:1007D000416476616E6365643A20533C6D696E5F77
:1007E00066656564726174653E20543C6D696E5F38
:1007F00074726176656C5F66656564726174653E8E
:1008000020423C6D696E5F7365676D656E745F74E1
:10081000696D655F6D733E20583C6D61785F7879D6
:100820005F6A65726B3E205A3C6D61785F7A5F6AE1
:1008300065726B3E20453C6D61785F655F6A6572ED
:100840006B3E0A0020540020520020204D323034EC
:10085000205000416363656C65726174696F6E203E
:1008600028756E6974732F7332293A20503C707268
:10087000696E745F616363656C3E20523C7265749F
:10088000726163745F616363656C3E20543C747293
:100890006176656C5F616363656C3E0A00204500AC
:1008A000205A0020590020204D3230312058004D70
:1008B0006178696D756D20416363656C6572617403
:1008C000696F6E2028756E6974732F7332293A0A26
:1008D00000204500205A0020590020204D3230339E
:1008E0002058004D6178696D756D2066656564728C
:1008F000617465732028756E6974732F73293A0AC1
:1009000000204500205A0020590020204D39322077
:10091000580053746570732070657220756E697429
:100920003A0A0020204D3230302044300A00202086
:100930004D32303020543120440020204D323030B0
:100940002044002044697361626C65640A00466952
:100950006C616D656E742073657474696E67733A4B
:10096000002020473231202020203B20556E697422
:100970007320696E206D6D0A00656E717565756511
:10098000696E672022004E6F204C696E65204E759F
:100990006D626572207769746820636865636B7344
:1009A000756D2C204C617374204C696E653A200083
:1009B0004B494C4C45442E20005072696E74657250
:1009C0002073746F707065642064756520746F2087
:1009D0006572726F72732E20466978207468652084
:1009E0006572726F7220616E6420757365204D3977
:1009F000393920746F20726573746172742E2028E7
:100A000054656D70657261747572652069732072CA
:100A1000657365742E205365742069742061667453
:100A200065722072657374617274696E67290A0059
:100A30004E6F20436865636B73756D2077697468CA
:100A4000206C696E65206E756D6265722C204C613C
:100A50007374204C696E653A2000636865636B733C
:100A6000756D206D69736D617463682C204C6173C2
:100A700074204C696E653A20004C696E65204E7595
:100A80006D626572206973206E6F74204C6173749F
:100A9000204C696E65204E756D6265722B312C207D
:100AA0004C617374204C696E653A20004D313130D1
:100AB0000020496E76616C69642065787472756493
:100AC000657220000000000000000000000000002F
:100AD00000007A4300004843000048430000200023
:100AE0002300260029002C002F0032000001000006
:100AF00003010601090100000A0B02090C0D0E0892
:100B000007030401000000000000000000000000D6
:100B100000000000000000000000000000000000D5
:100B20000000121110000000000000000000000092
:100B30000000000000000000000000004B494C4C89
:100B400045442E2000202D20496E76616C6964207A
:100B50006578747275646572206E756D6265722059
:100B6000210A004572726F723A002020506C616E4B
:100B70006E657242756666657242797465733A2075
:100B8000002046726565204D656D6F72793A2000D0
:100B9000436F6D70696C65643A2046656220313040
:100BA00020323031380A00207C20417574686F7221
:100BB0003A20286E6F6E652C2064656661756C74D2
:100BC00020636F6E666967290A00323031372D3134
:100BD000302D31302031323A303000204C61737486
:100BE00020557064617465643A2000312E312E36D0
:100BF0000A004D61726C696E0020536F66747761F4
:100C000072652052657365740A00205761746368C9
:100C1000646F672052657365740A002042726F77B3
:100C20006E206F75742052657365740A00204578D4
:100C30007465726E616C2052657365740A00506F42
:100C400077657255700A0073746172740A00205AD5
:100C50003A0020593A0020583A00656E6473746F68
:100C60007073206869743A20006563686F3A0010F9
:100C700000C90210012C014001220170011801B0CD
:100C8000010E01F00104015002FA00B002F0003040
:100C900003E600D003DC009004D2007005C800A079
:100CA00006BE000008B400B009AA00D00BA0006086
:100CB0000E960060118C000015820020197800C08B
:100CC0001D6E00A0226400B0275A00902C50000036
:100CD000314600E0343C0010383200903A28006081
:100CE0003C1E00A03D1400803E0A00203F0000543E
:100CF0004845524D414C2052554E415741590054A0
:100D00006865726D616C2052756E6177617900451E
:100D100072723A204D494E54454D50204245440090
:100D20004572723A204D494E54454D50004D494E42
:100D300054454D502074726967676572656400455B
:100D400072723A204D415854454D5020424544005E
:100D50004572723A204D415854454D50004D41580E
:100D600054454D5020747269676765726564000070
:100D7000002100240027002A002D0030003300014C
:100D8000010000040107010A0147322F47332062A6
:100D9000616420706172616D65746572730A002010
:100DA0002F002040002042403A0020403A00205AC4
:100DB0003A0020423A0020436F756E7420413A0099
:100DC00020453A00205A3A0020593A00583A00206B
:100DD00061786973206472697665722063757272D6
:100DE000656E743A2000747275650066616C736597
:100DF0000020617869732074656D70657261747527
:100E00007265207072657761726E207472696767AF
:100E1000657265643A2000207072657761726E2099
:100E2000666C616720636C65617265640A0020739B
:100E30007465616C746843686F70206D61782073AD
:100E4000706565642073657420746F200025753AA1
:100E50002530327500253032753A2530327500253F
:100E6000756420253032753A25303275002063755F
:100E70007272656E7420696E637265617365642059
:100E8000746F20002063757272656E7420646563F0
:100E900072656173656420746F20002064726976E6
:100EA0006572206F76657274656D706572617475B8
:100EB0007265207761726E696E67210A003A2000C0
:100EC000627573793A2070617573656420666F721C
:100ED00020696E7075740A00627573793A207061CA
:100EE0007573656420666F7220757365720A00629F
:100EF0007573793A2070726F63657373696E670AF0
:100F0000004B494C4C45442E20004B494C4C20632F
:100F1000617573656420627920746F6F206D7563ED
:100F20006820696E6163746976652074696D6520F7
:100F30002D2063757272656E7420636F6D6D616EC6
:100F4000643A200024F4D43050C38E20C2A240174B
:100F5000828B7011127A910D816CD90AA861E10817
:100F6000C7586607615143061E4B5D05C145A7047E
:100F70001A411104093D9803713931034036DB02EF
:100F800065339102D4305402802E1D02632CEE0191
:100F9000752AC501B028A001102781018F256401A1
:100FA0002B244B01E0223401AC211F018D200D01C7
:100FB000801FFC00841EED00971DDF00B81CD200CE
:100FC000E61BC600201BBC00641AB200B219A800C0
:100FD0000A19A0006A189900D117910040178B00D8
:100FE000B516840031167E00B31579003A157300EA
:100FF000C7146F0058146A00EE136600881363006C
:1010000025135E00C7125B006C12570015125400C6
:10101000C111510070114F0021114B00D610490031
:101020008D1047004610440002104200C00F4000DF
:10103000800F3E00420F3C00060F3B00CB0E3800F5
:10104000930E37005C0E3500270E3400F30D32008E
:10105000C10D3100900D3000600D2E00320D2D00BD
:10106000050D2C00D90C2B00AE0C2900850C290095
:101070005C0C2700350C27000E0C2600E80B240022
:10108000C40B2400A00B23007D0B23005A0B21006E
:10109000390B2100180B2000F80A1F00D90A1E0086
:1010A000BB0A1E009D0A1D00800A1D00630A1C0069
:1010B000470A1B002C0A1B00110A1A00F7091A0024
:1010C000DD091900C4091900AB09190092091700BC
:1010D0007B091800630917004C0916003609160031
:1010E000200916000A091500F5081500E00814008B
:1010F000CC081400B8081400A408140090081300C9
:101100007D0812006B0813005808120046081200F0
:101110003408110023081100120811000108110001
:10112000F0071000E0071000D0071000C007100003
:10113000B0070F00A107100091070E0083070F00F2
:1011400074070F0065070E0057070E0049070E00D1
:101150003B070D002E070E0020070D0013070D00A2
:1011600006070D00F9060C00ED060D00E0060C0068
:10117000D4060C00C8060C00BC060C00B0060C001F
:10118000A4060B0099060C008D060B0082060B00CE
:1011900077060B006C060B0061060A0057060B0071
:1011A0004C060A0042060A0038060A002E060A000B
:1011B00024060A001A060A001006090007060A009B
:1011C000FD050900F4050900EB050900E205090029
:1011D000D9050900D0050900C7050900BE050900A9
:1011E000B5050800AD050800A50509009C05080027
:1011F000940508008C050800840508007C0508009B
:10120000740508006C050700650508005D0507000A
:10121000560508004E050700470507004005080071
:1012200038050700310507002A05070023050700D8
:101230001C050600160507000F0507000805060037
:1012400002050700FB040600F5040700EE04060093
:10125000E8040600E2040700DB040600D5040600EB
:10126000CF040600C9040600C3040600BD0406003E
:10127000B7040600B1040500AC040600A60406008D
:10128000A00405009B0406009504050090040600D8
:101290008A04050085040500800406007A04050020
:1012A00075040500700405006B0405006604050064
:1012B000610405005C0405005704050052040500A4
:1012C0004D04050048040500430405003E040400E5
:1012D0003A04050035040500300404002C04050020
:1012E00027040400230405001E0404001A0404005B
:1012F00016040500110404000D040400090405008F
:101300000404040000040400FC030400F8030400C7
:10131000F4030400F0030400EC030400E8030400F9
:10132000E4030400E0030400DC030400D803040029
:10133000D4030400D0030400CC030400C80303005A
:10134000C503030024F404D9201BC40C5C0E9804CC
:10135000C4095F0265077101F405F900FB04B300DD
:1013600048048700C1036900580355000303450082
:10137000BE023A008402310053022A0029022500ED
:1013800004022000E4011C00C8011900AF0117008D
:101390009801140084011300710110006101100014
:1013A00051010E0043010D0036010B002B010B0013
:1013B00020010B00150109000C01090003010800C0
:1013C000FB000800F3000800EB000700E400060043
:1013D000DE000600D8000600D2000600CC000500A2
:1013E000C7000500C2000500BD000400B9000400EC
:1013F000B5000400B1000400AD000400A900040021
:10140000A5000300A20003009F0004009B0003004E
:101410009800030095000200930003009000030071
:101420008D0002008B00030088000200860002008D
:1014300084000300810002007F0002007D000200A2
:101440007B000200790002007700010076000200B4
:101450007400020072000100710002006F000200BF
:101460006D0001006C0002006A00010069000200CA
:1014700067000100660001006500010064000200D1
:101480006200010061000100600001005F000200D5
:101490005D0001005C0001005B0001005A000100DA
:1014A00059000100580001005700010056000100DA
:1014B00055000100540001005300000053000100DA
:1014C0005200010051000100500001004F000100D6
:1014D0004E0000004E0001004D0001004C000100D4
:1014E0004B0000004B0001004A00010049000100D0
:1014F00048000000480001004700010046000000CD
:1015000046000100450000004500010044000100C4
:1015100043000000430001004200000042000100BF
:101520004100000041000100400001003F000000B8
:101530003F0001003E0000003E0001003D000000B1
:101540003D0001003C0000003C0000003C000100A8
:101550003B0000003B0001003A0000003A0001009F
:101560003900000039000100380000003800000098
:10157000380001003700000037000100360000008D
:101580003600000036000100350000003500000084
:101590003500010034000000340000003400010078
:1015A000330000003300000033000100320000006F
:1015B0003200000032000100310000003100000064
:1015C0003100010030000000300000003000010058
:1015D0002F0000002F0000002F0000002F0001004E
:1015E0002E0000002E0000002E0001002D00000043
:1015F0002D0000002D0000002D0001002C00000037
:101600002C0000002C0000002C0001002B0000002A
:101610002B0000002B0000002B0001002A0000001E
:101620002A0000002A0000002A0001002900000012
:101630002900000029000000290000002900010005
:1016400028000000280000002800000028000000FA
:1016500028000100270000002700000027000000EC
:1016600027000000270001002600000026000000DF
:1016700026000000260000002600010025000000D2
:1016800025000000250000002500000025000000C6
:1016900025000100240000002400000024000000B8
:1016A00024000000240001002300000023000000AB
:1016B000230000002300000023000000230000009E
:1016C0002300010022000000220000002200000090
:1016D0002200000022000000220001002100000082
:1016E0002100000021000000210000002100000076
:1016F0002100000021000100200000002000000067
:101700002000000020000000200000002000000059
:1017100020000000200001001F0000001F0000004A
:101720001F0000001F0000001F0000001F0000003D
:101730001F0001001E0000001E0000001E0000002F
:101740001E0000005072696E7465722068616C74CE
:1017500065642E206B696C6C28292063616C6C6554
:1017600064210A0000007A43000048430000484317
:1017700000002042000020420000A04000000000C5
:101780005761726E696E673A20486F6D696E6720A7
:1017900042756D702044697669736F72203C203108
:1017A0000A000202040000A0400000A04000000067
:1017B0004000007A43000048430000484301010113
:1017C0002066697273740A005A0059005800486F05
:1017D0006D65200041637469766520457874727583
:1017E0006465723A20000102102020080810204091
:1017F00010204080020102010804020101020408D5
:101800001020408080402010080402018004020162
:1018100080402010080402010804020101020408AB
:1018200010204080010204081020408000002200A7
:10183000250028002B002E0031003400020100009A
:10184000050108010B01050505050705080808083D
:10185000020202020A0A0808040404040101010148
:101860000101010103030303030303030407070743
:101870000C0C0C0C0C0C0C0C0202020206060606E8
:10188000060606060B0B0B0B0B0B0B0B02626564BB
:101890000A002C2073797374656D2073746F7070F7
:1018A000656421204865617465725F49443A20008F
:1018B00048656174696E67206661696C656400489B
:1018C000656174696E67206661696C65640048656E
:1018D0006174696E67206661696C65640048656162
:1018E00074696E67206661696C65640070012C0123
:1018F00090012701B0012201C0011D01F001180172
:101900001002130130020E0160020901900204016D
:10191000C002FF000003FA004003F5008003F0005E
:10192000D003EB002004E6007004E100E004DC00DA
:101930004005D700C005D2004006CD00D006C80043
:101940008007C3003008BE00F008B900C009B40029
:10195000B00AAF00B00BAA00D00CA500000EA0008A
:10196000500F9B00C01096005012910000148C0084
:10197000C0158700B0178200B0197D00D01B780019
:10198000001E730040206E0090226900F024640065
:1019900040275F0090295A00E02B5500102E500080
:1019A00020304B0010324600E033410090353C00BF
:1019B0001037370070383200A0392D00B03A2800B7
:1019C000A03B2300603C1E00103D1900903D140018
:1019D000103E0F00703E0A00C03E0500003F0000B0
:1019E000403FFBFF803FF6FFC03FF1FF526573654C
:1019F0006E643A20006F6B008A7211241FBECFEF15
:101A0000D1E2DEBFCDBF00E00CBF13E0A0E0B2E04A
:101A1000E4E3F1E001E00BBF02C007900D92A435B2
:101A2000B107D9F72FE0A4E5B3E001C01D92AA3BAE
:101A3000B207E1F71CE0CDEFDCE000E006C0219743
:101A40000109802FFE010E947E7FCC3FD10780E0FC
:101A50000807A9F70E94456D0C9498800C9400002B
:101A60002F923F924F925F926F927F928F929F92AE
:101A7000AF92BF92CF92DF92EF92FF920F931F939C
:101A8000CF93DF93CDB7DEB7CF54D1090FB6F8941B
:101A9000DEBF0FBECDBF0091C90520E6029F8001C9
:101AA000112407581C4F80917F0B80FF1AC0E9E674
:101AB000FCE084917F013FEFE31AF30A811102C039
:101AC000780104C00E94815BF701F3CFD7018D91AB
:101AD0007D01882319F00E94815BF8CF8AE00E9483
:101AE000815B81E090E090932B0680932A06109210
:101AF00000051092FF048FE3809303051092020506
:101B00001092010510926E0310926F0310927003F1
:101B100010927103F80180810F5F1F4F8032D1F363
:101B20008E34B1F4818190ED980F9A3020F08D328F
:101B300011F08B3269F43296DF0131962C912053EB
:101B40002A30D0F3CD01FC01019620812032D9F357
:101B5000F0933206E09331067F01BFEFEB1AFB0AE8
:101B600010816AE270E0C7010E947D80009731F029
:101B7000FC01319780818032E1F31182173451F0FA
:101B800024F4123409F0D5C005C01D3419F0143501
:101B900009F0CFC0F70180812FEFE21AF20A8032FC
:101BA000C9F380538A3008F0C4C010930305209114
:101BB0000105309102054AE03196429FC001439FE2
:101BC000900D1124DF0111972C91022E000C330B84
:101BD00020533109280F391F808180538A3060F3E8
:101BE0003093020520930105DF0131968C918032FC
:101BF000D9F31D3449F0009131064091FF04509112
:101C0000000561E070E058C02E31310591F03CF4E0
:101C10002731310571F02C31310569F70AC02537BC
:101C200031054CF32737310524F0203A43E03407DF
:101C300011F7B0930005A093FF047BC0813209F433
:101C400045C09FEBB92EB80E89E1A82EAB1408F45D
:101C50005EC0DF01FD01908111969032D9F3A0EDB5
:101C6000A90FAA3008F047C04F01EB2CF12C6701F7
:101C7000A3E0D594C794AA95E1F7C60182599C4F79
:101C80006C018B2D8770DB0102C0AA0FBB1F8A95E8
:101C9000E2F7CD01D6019C91892B8C93811491049C
:101CA000A1F1801AC7018C5A9C4FDC018C92808173
:101CB00081548A3188F5DF01FD0131968C918111C3
:101CC000BDCF509300054093FF0433C01D3409F08D
:101CD000B8CF2032310509F0B4CFF0930005E0937E
:101CE000FF0463E270E0CF010E947D80009709F15C
:101CF000DC011C921EC0A3EDA90FA23008F4B4CFE2
:101D00009B3211F00C94751FAFCF812CCBCF4115B6
:101D1000510569F6AD01CBCFDF0131969C9190530F
:101D20009A30D0F3CD01FC010196A081A032D9F305
:101D3000C2CF80910305873481F034F4823411F4EA
:101D40000C94181F0C94541F8D3409F4BCC18435B5
:101D500011F40C94E91E0C94541F2091010530914C
:101D600002052430310599F144F437FF02C00C9488
:101D70006E1F2230310514F515C02A35310509F4DE
:101D8000F5C034F42C31310509F45EC00C946E1F9B
:101D90002B35310509F4EEC02C35310509F4EFC0BF
:101DA0000C946E1F80913502882311F40C946E1FE1
:101DB0000E946A3A0E94C5440C946E1F81E0223052
:101DC000310509F080E00E94DE3A0C946E1F80E538
:101DD0000E94DA27882329F00E9438276B017C01B2
:101DE00003C0C12CD12C760183E50E94DA27882319
:101DF00061F00E94782720E030E04AE754E40E9436
:101E0000DB780E94C07D6B017C010E94176B0E94F1
:101E100026288091330690913406A0913506B09122
:101E20003606C80ED91EEA1EFB1E0E94B430DC0125
:101E3000CB018C199D09AE09BF09B7FD02C00C94F6
:101E40006E1F0E944341F1CF0E94176BE090D50BAB
:101E500021E040E050E0BA0180E00E94BA5C80914D
:101E6000300290913102A0913202B09133028093FE
:101E7000FB049093FC04A093FD04B093FE048091B6
:101E80001402909115029093FA048093F90484E669
:101E900090E090931502809314020E94262811E08E
:101EA00010937C0588E50E94AB27D82E89E50E9417
:101EB000AB27082F8AE50E94AB27F82ED11004C06B
:101EC000011104C0182705C0011102C010E001C0B3
:101ED000182F0E949E24111105C0F11003C0D110CB
:101EE00007C00CC082E090E00E94C45E1123B9F3E9
:101EF00080E090E00E94C45E111102C0002321F036
:101F000081E090E00E94C45E0E94C7268091720327
:101F100080937C058091FB049091FC04A091FD04CA
:101F2000B091FE048093300290933102A09332026C
:101F3000B09333028091F9049091FA0490931502C2
:101F4000809314020E942628B1E0BE1520F48E2D45
:101F50000E943B3707C021E040E050E0BA018E2DDF
:101F60000E94BA5C0E94BD380C946E1F10927803D8
:101F70000C946E1F81E0809378030C946E1F85E4AF
:101F80000E94DA27B82E811102C00E94176B68E404
:101F9000862E62E0962E7CE8C72E75E0D72EE1EB08
:101FA000EE2EEBE0FE2E00E010E0A12CF40181917A
:101FB0004F010E94DA278823E1F1D6012D913D914E
:101FC0004D915C912F962FAF2F9760963FAF609702
:101FD0002D964FAF2D972E965FAF2E970E947827A4
:101FE000F60160837183828393832F962FAD2F97A1
:101FF00060963FAD60972D964FAD2D972E965FADB5
:102000002E9703301105A9F00E94767C9B01AC014C
:10201000D7016D917D918D919C910E94777CF70104
:102020006083718382839383C8010E94CB24AA2496
:10203000A3940F5F1F4FF4E0CF0ED11C24E0E20EFB
:10204000F11C0430110509F0B1CFAA2019F00E944B
:10205000C72688CFBB2009F485CFC0909805D090C3
:102060009905E0909A05F0909B052091AC0F309176
:10207000AD0F4091AE0F5091AF0FC701B6010E9456
:10208000DB780E94A87E6093C80E7093C90E80937F
:10209000CA0E9093CB0EC701B6010E94BB7D2FB72D
:1020A000F8946093110F7093120F8093130F909315
:1020B000140F2FBF1092B80E1092B90E1092BA0ED4
:1020C0001092BB0E4FCF8091010590910205893788
:1020D000910509F44CC60CF081C08836910509F4CD
:1020E00040C20CF045C08D34910509F436C2CCF4E1
:1020F0008F31910509F431C14CF48131910509F416
:102100001EC1429709F425C40C946E1F8B349105AF
:1021100009F405C20CF007C28A9709F4C1C10C94F6
:102120006E1F8335910509F40FC46CF48135910558
:1021300009F4E7C38235910511F00C946E1F1092DB
:1021400077030C946E1F8535910509F439C40CF49E
:1021500000C48C35910511F00C946E1F38E4C32E29
:1021600032E0D32E40EAE42E4FE0F42E10E043C4D8
:102170008F36910509F43FC2B4F48B36910509F40A
:10218000AEC354F48936910509F411C38A3691051A
:1021900009F486C30C946E1F8D36910509F44FC364
:1021A0000CF4B7C215C28337910509F4AAC454F4DC
:1021B0008137910509F4B1C20CF09DC484E592E029
:1021C0000E94A55F8737910509F464C50CF0C8C566
:1021D0008637910509F427C50C946E1F8D3231E0C6
:1021E000930711F40C9473190CF045C08C3C9105C5
:1021F00009F46AC6ECF48E3B910509F43CC354F42F
:102200008C38910509F4B5C28B39910509F4ECC2FB
:102210000C946E1F893C910509F416C68B3C910500
:1022200009F434C6883C910511F00C946E1FA5C5C5
:102230008A3D910509F4FAC774F48E3C910509F4BE
:1022400018C70CF4ABC6833D910511F00C946E1FBA
:10225000E9E6FCE055C78D3D910511F40C94301969
:10226000823E910511F40C9449198C3D910511F0B1
:102270000C946E1FE8C7853F51E0950711F40C944C
:10228000201D5CF58039B1E09B0711F40C94541CBF
:102290007CF48F32F1E09F0711F40C94111A83360D
:1022A000914011F00C946E1FE3E6FBE00C94C21E0B
:1022B0008C3A31E0930711F40C94571C843F41E0B1
:1022C000940711F40C94071D8A39914011F00C9475
:1022D0006E1F0E946F380C946E1F8F38A3E09A0710
:1022E00011F40C94891DDCF4873FE1E09E0711F4A2
:1022F0000C94291D14F40C94261D8A38934011F077
:102300000C946E1F68E4E62E62E0F62E8E010F5FDD
:102310001F4F6E01F9E0CF0ED11C0C94401D813986
:1023200033E0930711F40C941B1E14F40C94D21D8B
:10233000873E934011F40C94D91E0C946E1F5F9845
:102340008A989FB7F894809108018E7F8093080146
:102350009FBF129847980C946E1F0E94E0605CE348
:10236000C52ED12CE12CF12CA70196010E943B7CBB
:10237000762E672ECA01B901A70196010E943B7C07
:102380006B017C01CA01B90128E130E040E050E076
:102390000E943B7C4B015C01C9016DE671E00E942B
:1023A0003B7F8E010F5F1F4F6115710599F06F9292
:1023B0007F92DF92CF929F928F929F938F937F9382
:1023C0006F938FE092E09F938F931F930F930E94E0
:1023D000477826C0009789F06F927F92DF92CF9264
:1023E0009F928F929F938F938FEF91E09F938F9304
:1023F0001F930F930E94477813C081149104A10486
:10240000B104B1F06F927F92DF92CF929F928F9240
:1024100083EF91E09F938F931F930F930E944778D0
:102420000FB6F894DEBF0FBECDBFE9E6FCE023C0D7
:10243000C114D104E104F10469F06F927F92DF923C
:10244000CF928BEE91E09F938F931F930F930E94F7
:102450004778E6CF6F927F9287EE91E09F938F93BC
:102460001F930F930E9447780F900F900F900F903B
:102470000F900F90DACF84917F013FEFE31AF30AB8
:10248000882321F00E94815BF701F5CFB80183E238
:1024900092E00E94746B8AE00E94815B0C946E1F34
:1024A00083E50E94DA27882311F40C946E1F0E94A2
:1024B0005827E82E80E50E94DA27882339F00E9409
:1024C00048278B0177FF04C00C946E1F0DE010E0CD
:1024D000902FE0E1F5E080E38E0F2491921729F030
:1024E00031968E13FACF0C947F1FE3E6FBE08491C4
:1024F0008F010F5F1F4F882321F00E94815BF8013D
:10250000F6CFE0E3F2E084918F010F5F1F4F882345
:1025100011F40C946E1F0E94815BF801F4CF0E94AD
:1025200016610C946E1F8091CE0E9091CF0E019784
:1025300011F00C946E1F82E090E09093CF0E809388
:10254000CE0E0E94B4306093D80E7093D90E809353
:10255000DA0E9093DB0E0C946E1F0E94D45F0C94E5
:102560006E1F88E690E00E94E62781110C946E1F92
:1025700080917F0B83FF02C00C946E1F83E50E9445
:10258000DA27882309F10E947827F09073032F2D12
:1025900030E0220F331F890100521A4F0E94BB7D89
:1025A000D8016D937C938F2D0E9406670E94782737
:1025B00020E030E04AEA52E40E947678181614F0DF
:1025C0000E94D45F0E9478270E94DF720C946E1FD5
:1025D0008EE40E94DA27882311F40C946E1F0E9467
:1025E00048276093B00F7093B10F8093B20F909310
:1025F000B30F0C946E1F83E50E94AB27882359F01C
:1026000083E50E94DA27882319F00E94582701C029
:1026100080E080937F0BE9E6FCE084918F010F5FFF
:102620001F4F882321F00E94815BF801F6CFEDE473
:10263000F2E084918F010F5F1F4F882321F00E94E9
:10264000815BF801F6CF80917F0B8823A1F10FE326
:10265000C02E02E0D02EE12CF12C20E080917F0BE7
:1026600090E00E2C02C0959587950A94E2F780FFC2
:1026700017C0BB24B394B20E222319F08CE20E943F
:10268000815BF60125913491F901849189010F5FF5
:102690001F4F882321F00E94815B9801F5CF2B2DDD
:1026A000FFEFEF1AFF0A32E0C30ED11C45E0E4163B
:1026B000F104A1F629C0E9E4F2E084918F010F5FF3
:1026C0001F4F882309F10E94815BF801F6CF0DEBC3
:1026D0001BE080E20E94815BD8016D917D918D911C
:1026E0009D918D0142E00E94085C8CE20E94815B1A
:1026F000F801648175818681978142E00E94085CBF
:10270000FBE0053C1F0729F78AE00E94815B0C94DF
:102710006E1F109200020C946E1F83E50E94DA2750
:10272000882369F00E945827809316028D3310F495
:102730000C946E1F8CE3809316020C946E1FE9E6D6
:10274000FCE084918F010F5F1F4F882321F00E94CE
:10275000815BF801F6CF4091160250E060E070E036
:102760008DE592E00E94FE4B8AE00E94815B0C9412
:102770006E1F80917F0B83FF02C00C946E1F83E558
:102780000E94DA27882311F40C946E1F0E94782788
:102790000E94BB7D6739710514F066E970E07093A3
:1027A000DD056093DC050E94BB660C946E1F89E614
:1027B00090E00E94E627811111C0E4E6F2E08491E6
:1027C0008F010F5F1F4F882321F00E94815BF8016A
:1027D000F6CF0E947C398AE00E94815B10922B0622
:1027E00010922A060C940E2483E50E94DA2788238F
:1027F00011F40C946E1F0E945827809330068D337D
:1028000018F08CE3809330060E94B4306B017C0199
:102810002091300630E0A8EEB3E00E94677CDC0136
:10282000CB018C0D9D1DAE1DBF1D80932C0690937A
:102830002D06A0932E06B0932F060C946E1F8DE6E6
:1028400090E00E94E62781110C946E1F80917F0B0F
:1028500083FF02C00C946E1F83E50E94DA278C8FE1
:1028600081110C94941F82E50E94DA2781110C9447
:10287000941F0C946E1F80917F0B83FF02C00C94F9
:102880006E1F83E50E94DA278C8F81110C94D9206A
:1028900082E50E94DA2781110C94D9200C946E1FD6
:1028A00083E50E94DA27882339F00E9448278B01AC
:1028B0006F3F710519F010F00FEF10E080E50E94F6
:1028C000DA27811106C01093760B0093750B0C94D8
:1028D0006E1F0E94582781110C946E1FF4CF80E563
:1028E0000E94DA27811106C01092760B1092750BA8
:1028F0000C946E1F0E944827672B11F00C946E1FDA
:10290000F3CF0E94DD350E94176B0E943444109271
:10291000760B1092750B00E010E062E370E080E04F
:1029200090E00E947C300E949E680F5F1F4F033131
:10293000110599F762E370E080E090E00E947C303E
:102940000E949E680C946E1F81E0809377030C9424
:102950006E1F83E50E94DA278823A1F00E94782762
:1029600020E030E04AE754E40E94DB780E94C07D1A
:1029700060931702709318028093190290931A02C1
:102980000C946E1F88E50E94AB2781110C940D22D8
:1029900089E50E94AB2781110C940D228AE50E94E3
:1029A000AB2781110C940D2285E40E94AB27811185
:1029B0000C940D220E94176B0E9434440C946E1FDD
:1029C00083E50E94AB27882311F40C946E1F0E94AC
:1029D000782720E030E04AE754E40E94DB780E9448
:1029E000C07D6093370670933806809339069093C4
:1029F0003A060C946E1FD6018D916D010E94AB2793
:102A0000882309F46DC0133009F063C00E94782751
:102A10004B015C0120E030E040EA51E40E9476780E
:102A200087FF4EC0A50194016091AC0F7091AD0F6E
:102A30008091AE0F9091AF0F0E94537D2B013C010E
:102A40009B01AC016091490B70914A0B80914B0B3B
:102A500090914C0B0E94DB786093490B70934A0B6A
:102A600080934B0B90934C0BA30192016091650BEB
:102A70007091660B8091670B9091680B0E94DB78D8
:102A80006093650B7093660B8093670B9093680B54
:102A900060918C0F70918D0F80918E0F90918F0FA0
:102AA0000E947A78A30192010E94DB780E94C07D87
:102AB00060938C0F70938D0F80938E0F90938F0F78
:102AC0008092AC0F9092AD0FA092AE0FB092AF0F6C
:102AD00007C00E947827F701608371838283938304
:102AE0001F5FF4E0EF0EF11C143009F084CF0E9458
:102AF000D26C0C946E1F0E94176B0E94BD380C9410
:102B00006E1FEAE4F3E084918F010F5F1F4F88236B
:102B100021F00E94815BF801F6CFECE3F3E08491B1
:102B20008F010F5F1F4F882321F00E94815BF80106
:102B3000F6CFE5E2F3E084918F010F5F1F4F88230A
:102B400021F00E94815BF801F6CFE5E1F3E084918A
:102B50008F010F5F1F4F882321F00E94815BF801D6
:102B6000F6CFE4E0F3E084918F010F5F1F4F8823DD
:102B700021F00E94815BF801F6CFE3EFF2E084914F
:102B80008F010F5F1F4F882321F00E94815BF801A6
:102B9000F6CFE4EEF2E084918F010F5F1F4F8823A0
:102BA00021F00E94815BF801F6CFEFECF2E0849116
:102BB0008F010F5F1F4F882321F00E94815BF80176
:102BC000F6CFE9EBF2E084918F010F5F1F4F88236E
:102BD00021F00E94815BF801F6CFE4EAF2E08491F3
:102BE0008F010F5F1F4F882321F00E94815BF80146
:102BF000F6CFE7E8F2E084918F010F5F1F4F882343
:102C000021F00E94815BF801F6CFEFE6F2E08491BB
:102C10008F010F5F1F4F882311F40C946E1F0E94C9
:102C2000815BF801F4CF85E40E94AB27882381F013
:102C30000E946927882361F0E9E6FCE084918F0116
:102C40000F5F1F4F882321F00E94815BF801F6CFB0
:102C500081E40E94AB27882381F00E9469278823A2
:102C600061F0E0E1F4E084918F010F5F1F4F882352
:102C700021F00E94815BF801F6CF0091FF041091D2
:102C80000005D8018D918D01882309F43DCD0E9466
:102C9000815BF7CFECE2F4E084918F010F5F1F4F6F
:102CA000882321F00E94815BF801F6CFE4E2F4E092
:102CB00084918F010F5F1F4F882321F00E94815B59
:102CC000F801F6CF659B03C004E712E002C009E7F4
:102CD00012E0F80181918F01882319F00E94815B35
:102CE000F8CF8AE00E94815BECE1F4E084918F01EF
:102CF0000F5F1F4F882321F00E94815BF801F6CF00
:102D00008091030180FF03C004E712E002C009E7DD
:102D100012E0D8018D918D01882319F00E94815B0A
:102D2000F8CF8AE00E94815BE4E1F4E084918F01B6
:102D30000F5F1F4F882321F00E94815BF801F6CFBF
:102D40004A9B03C004E712E002C009E712E0F80161
:102D500081918F01882309F4D7CC0E94815BF7CF42
:102D600081E080937C05809372030C946E1F109217
:102D70007C05109272030C946E1F88EC90E00E9408
:102D8000E62781110C946E1F84E40E94AB278823F0
:102D900009F456C00E94782711E020E030E0A90134
:102DA0000E947678811101C010E010932006112353
:102DB00009F446C00091730310E00E947827000FC9
:102DC000111F000F111FF801EF5DF94F6083718330
:102DD0008283938320E030E0A90160912106709105
:102DE000220680912306909124060E947678811114
:102DF0000CC080E090E0A0E4B0E4809321069093C2
:102E00002206A0932306B093240620E030E0A90117
:102E100060912506709126068091270690912806DC
:102E20000E94767881110CC080E090E0A0E4B0E4CC
:102E30008093250690932606A0932706B093280634
:102E40000E9444440C946E1FA0E9EA2EAFE0FA2ED3
:102E500008E412E0B4E0DB2ED00ED8018D918D0194
:102E60000E94AB27882349F00E9478270E94C07DEA
:102E7000F7016083718382839383F4E0EF0EF11C8A
:102E8000D012EBCF0E949C6B0C946E1FE9E5EE2EE6
:102E9000EBE0FE2E08E412E0F4E0DF2ED00ED801C5
:102EA0008D918D010E94AB27882339F00E947827ED
:102EB000F7016083718382839383F4E0EF0EF11C4A
:102EC000D012EDCF0C946E1F83E50E94AB278823B0
:102ED000D9F00E947827AB01BC014093510B50936D
:102EE000520B6093530B7093540B40934D0B5093C4
:102EF0004E0B60934F0B7093500B80EA94E00E944E
:102F00003E6B8AE00E94815B80E50E94AB278823AC
:102F100099F00E947827AB01BC014093510B50936C
:102F2000520B6093530B7093540B83E894E00E9410
:102F30003E6B8AE00E94815B82E50E94AB2788237A
:102F400099F00E947827AB01BC014093550B509338
:102F5000560B6093570B7093580B84E694E00E94D5
:102F60003E6B8AE00E94815B84E50E94AB27882348
:102F700009F4B4C70E947827AB01BC0140934D0B04
:102F800050934E0B60934F0B7093500B86E494E07C
:102F90000E943E6B8AE00E94815BA0C783E50E948D
:102FA000AB27882351F00E9478276093710B7093B0
:102FB000720B8093730B9093740B84E50E94AB2784
:102FC000882351F00E94782760936D0B70936E0BED
:102FD00080936F0B9093700B82E40E94AB27882341
:102FE00051F00E9438276093690B70936A0B8093AD
:102FF0006B0B90936C0B88E50E94AB27882351F0F4
:103000000E94782760933D0B70933E0B80933F0B9B
:103010009093400B89E50E94AB27882351F00E94D2
:1030200078276093410B7093420B8093430B9093EE
:10303000440B8AE50E94AB27882351F00E94782731
:103040006093450B7093460B8093470B9093480B0E
:1030500085E40E94AB27882309F440C70E947827A3
:103060006093490B70934A0B80934B0B90934C0BDE
:1030700035C758E4A52E52E0B52E6CE8C62E65E0A3
:10308000D62E70E8E72E75E0F72E00E010E0D501AF
:103090008D915D010E94AB27882311F10E94782752
:1030A0002B013C01F70120813181428153810E9433
:1030B000767C9B01AC01D6016D917D918D919C91A7
:1030C0000E94777CF6016083718382839383D701AA
:1030D0004D925D926D927C921397C8010E94CB2411
:1030E0000F5F1F4FB4E0CB0ED11CE4E0EE0EF11CDD
:1030F0000330110561F60E94C7260E94BD38EEC656
:1031000084918F010F5F1F4F882321F00E94815B04
:10311000F801F6CF83E50E94AB27882321F00E94B7
:10312000692780931302E0EFF4E084918F010F5F31
:103130001F4F882321F00E94815BF801F6CF809118
:103140001302811103C0ECEEF4E002C0E8EEF4E0FB
:1031500084918F010F5F1F4F882321F00E94815BB4
:10316000F801F6CFE0EEF4E084918F010F5F1F4F7E
:10317000882321F00E94815BF801F6CF4091A20BD9
:103180005091A30B6091A40B7091A50B8EED94E070
:103190000E943E6B4091A60B5091A70B6091A80B2B
:1031A0007091A90B8BED94E00E943E6B4091AA0BAD
:1031B0005091AB0B6091AC0B7091AD0B88ED94E02E
:1031C0000E943E6BE0EDF4E084918F010F5F1F4F92
:1031D000882321F00E94815BF801F6CF4091240200
:1031E0005091250260912602709127028EEC94E0A6
:1031F0000E943E6B409128025091290260912A0260
:1032000070912B028BEC94E00E943E6B40912C025B
:1032100050912D0260912E0270912F0288EC94E063
:103220000E943E6B8AE00E94815B58C68AED90E066
:103230000E94E627811152C610917303112309F4ED
:103240004DC60C94332283E50E94DA27882309F4C3
:1032500045C60E94482770931502609314023EC62B
:103260008DED90E00E94E627811138C683E50E942B
:10327000DA27882309F432C60091730310E00E9414
:103280004827000F111FF801E05EFD4F7183608336
:1032900025C680E50E94AB27882309F41FC60E943B
:1032A0004827F62EC62ED72E83E50E94DA278823DC
:1032B00021F00E9448278B0102C00FEF1FEFC801C9
:1032C0000196039708F00AC6D7FC08C6E0E1F5E0CE
:1032D00080E38E0F9491F91609F400C631968E138F
:1032E000F9CF0C94D92385E40E94DA27811110C00C
:1032F00080E50E94AB27882391F00E947827609395
:10330000190F70931A0F80931B0F90931C0F07C017
:103310000E945827823060F3E3E6FBE071C089E445
:103320000E94AB27882381F00E9478272CEA35EC95
:1033300047E25EE30E94DB786093150F7093160FEF
:103340008093170F9093180F84E40E94AB27882373
:1033500081F00E9478272CEA35EC47E25EE30E9478
:10336000537D60931D0F70931E0F80931F0F9093DA
:10337000200FE9E6FCE084918F010F5F1F4F882347
:1033800021F00E94815BF801F6CF4091190F509116
:103390001A0F60911B0F70911C0F88E495E00E943A
:1033A0003E6B2CEA35EC47E25EE36091150F7091BD
:1033B000160F8091170F9091180F0E94537DAB014B
:1033C000BC0184E495E00E94216B2CEA35EC47E2D5
:1033D0005EE360911D0F70911E0F80911F0F909101
:1033E000200F0E94DB78AB01BC0180E495E00E94D5
:1033F000216B8AE00E94815B71C50E94815BF801AC
:1034000084918F010F5F1F4F8111F7CF03E812E006
:10341000D8018D918D01882309F476C90E94815BC2
:10342000F7CF85E40E94DA27882321F00E944827FD
:103430008B0102C000E010E083E40E94DA278823B9
:1034400039F00E94482726967FAF6EAF269706C0B8
:10345000E5E0F0E02696FFAFEEAF269785E50E9407
:10346000AB278AAF882319F00E9469278AAF17FD1E
:1034700007C0412C512C26E1622E23E4722E06C097
:10348000412C512C9CE8692E92E4792E83E50E9410
:10349000DA27882321F00E9478272B013C01023093
:1034A000110510F4009373030E94B4304B015C01CA
:1034B0000230110528F484E9E82E82E0F82E0BC0D2
:1034C00007EA12E0D8018D918D01882309F41CC907
:1034D0000E94815BF7CFF70181917F01882319F06A
:1034E0000E94815BF8CFC301B2010E94BB7D072E11
:1034F000000C880B990B0E947C786EA37FA388A791
:1035000099A78AE00E94815B0E94DD35F801E651AF
:10351000FA4F8FE7808381E0809300028CAE9DAEEE
:10352000AEAEBFAE2A968CAE9DAEAEAEBFAE2A9703
:103530001AA620E42BA73CE13CA746E44DA71EA613
:103540001FA618AA19AA1EAA1FAA18AE19AE1AAA4F
:103550001BAA1CAA1DAAC12CD12C7601AFE74A2EAA
:10356000512C612C712C8FE790E0A0E0B0E088A393
:1035700099A3AAA3BBA324961CAE1DAE1EAE1FAE7C
:10358000249791E09BAF1DA21CA21E8A188E212CAD
:10359000312C000F111F000F111F0C551A4F2C96C4
:1035A000FFAFEEAF2C9780910002882309F475C11C
:1035B0000E94B4306C8F7D8F8E8F9F8F8091E80535
:1035C000882309F497C00E94FD67D801BC91BE8B87
:1035D000F801F181F88FD80112962C90129713966A
:1035E0003C902E893F2FA1016EA57FA588A999A99E
:1035F0000E94767887FF06C0BE89BEA7E88DEFA738
:1036000028AA39AA2E89388DA1016AA57BA58CA587
:103610009DA50E949D7E181634F4FE89FAA7288D78
:103620002BA72CA63DA63BAD2EA1332309F444C005
:103630003FA148A559A56E89788DC1010E949D7E44
:1036400018160CF057C04C8D5D8D6E8D7F8D48190E
:1036500059096A097B09DB01CA0188589341A1090C
:10366000B109B7FD47C088A199A1AAA1BBA184193E
:103670009509A609B709B595A795979587952C96AD
:10368000EEADFFAD2C97808324964CAF5DAF6EAF4F
:103690007FAF2497FEA1FEA72FA12FA738A538AB97
:1036A00049A549AB8C8D9D8DAE8DBF8D8CAF9DAFE7
:1036B000AEAFBFAF1BAE1EC03FA148A559A56E89D6
:1036C000788DC1010E94767887FF14C08C8D9D8D06
:1036D000AE8DBF8D2CAD3DAD4EAD5FAD821B930B5E
:1036E000A40BB50BAC01BD014858534161097109E8
:1036F00077FFF5C620E030E040EA51E46EA17FA1FB
:1037000088A599A50E94777C9B01AC016E89788D74
:10371000C1010E949D7E18166CF4E6E0F6E08491EB
:103720008F010F5F1F4F882309F4D8C30E94815B6C
:10373000F801F5CF80E398EFAFEFBFEF2A962CADFD
:103740003DAD4EAD5FAD2A97821B930BA40BB50B1D
:103750002C8D3D8D4E8D5F8D820F931FA41FB51F45
:10376000B7FD0FC00E947C398AE00E94815B8C8D7E
:103770009D8DAE8DBF8D2A968CAF9DAFAEAFBFAF86
:103780002A978C8D9D8DAE8DBF8D880F991FAA1F96
:10379000BB1F2CAD3DAD4EAD5FAD821B930BA40B9B
:1037A000B50B88199909AA09BB0981389F44A24120
:1037B000B10568F0E8EEF5E084918F010F5F1F4FCF
:1037C000882309F48BC30E94815BF801F5CF4CA1DB
:1037D0005DA126968EAD9FAD2697841795070CF0B8
:1037E000E2CEEBE8F5E084918F010F5F1F4F882355
:1037F00021F00E94815BF801F6CFB701A60186E7B0
:1038000095E00E943E6B8AE00E94815B4AA95BA919
:103810006CA97DA981E695E00E943E6B8AE00E943A
:10382000815B4EA95FA968AD79AD8CE495E00E94FB
:103830003E6B8AE00E94815BAAACAA2009F44EC3C9
:10384000C092190FD0921A0FE0921B0FF0921C0F2A
:103850002CEA35EC47E25EE36AA97BA98CA99DA915
:103860000E94DB786093150F7093160F8093170FEB
:103870009093180F2CEA35EC47E25EE36EA97FA91E
:1038800088AD99AD0E94537D60931D0F70931E0FFC
:1038900080931F0F9093200F21C38091000281110C
:1038A0001DC30E94DD351AC30E94176B17C370E851
:1038B000C72E75E0D72EECE8EE2EE5E0FE2EFEEAF0
:1038C0002F2EFBE03F2E00E010E091012E5A3B40EE
:1038D0003F8B2E8BD1018D911D01882309F48AC065
:1038E000F7014080518062807380F801EC5DFD4FEC
:1038F0002081318142815381F801EE55F44F60817E
:103900007181828193810E94777C20E030E040E0E9
:103910005FE30E94DB789B01AC01C301B2010E940E
:103920009D7E181644F4F801EC59F84E8590959058
:10393000A590B49003C0812C912C5401F801EA5752
:10394000F44F2081318142815381C301B2010E9431
:10395000767C9B01AC01C501B4010E94767C4B01D1
:103960005C0120E030E040EA51EC0E949D7E87FD42
:1039700028C020E030E040EA51E4C501B4010E94D3
:1039800076781816F4F0D6012D913D914D915C9109
:10399000C501B4010E94767C9B01AC01C301B20158
:1039A0000E94777CF7016083718382839383D601C1
:1039B0008D929D92AD92BC9213978E899F89EBD781
:1039C00019C0E3E6FBE084918F010F5F1F4F88234E
:1039D00021F00E94815BF801F6CFEAE7F6E08491DE
:1039E0008F010F5F1F4F882309F478C20E94815B0B
:1039F000F801F5CFB4E0CB0ED11C0C5F1F4FE4E013
:103A0000EE0EF11C0C30110509F05FCF74CBE3E62C
:103A1000FBE084918F010F5F1F4F882321F00E94EC
:103A2000815BF801F6CFE8E9F6E084918F010F5F42
:103A30001F4F882309F452C20E94815BF801F5CF21
:103A40000E94302D80E00E941C2948C20E94302D27
:103A500045C283E50E94AB27882319F00E9469279D
:103A600001C081E091E089270E941C2937C260E0F3
:103A700070E0F801619371938F01EC15FD0551F031
:103A8000D7018D917D010E94DA27882381F30E945E
:103A90004827EFCF49815A8168E583E39EE04115CD
:103AA000510519F00E94613802C00E943D384B81D7
:103AB0005C8169E58EEB9DE04115510519F00E948E
:103AC000613802C00E943D384D815E816AE589E41B
:103AD0009DE04115510519F00E94613802C00E9415
:103AE0003D384F81588565E484ED9CE041155105D2
:103AF00019F00E94613802C00E943D3883E50E949F
:103B0000AB27882309F4EAC10E946927809329061C
:103B1000E5C188E50E94AB27182F89E50E94AB27F5
:103B2000E82E8AE50E94AB27F82E85E40E94AB2799
:103B3000082F111108C0E11018C0F11022C0811126
:103B400065C611E007C0EE2011F0F11002C010E0D0
:103B500001C0182F68E583E39EE00E941138E11050
:103B600005C0112309F44CC601C010E069E58EEBD5
:103B70009DE00E941138F11005C0112309F446C6DA
:103B800001C010E06AE589E49DE00E94113800233D
:103B900031F065E484ED9CE00E9411389FC1111161
:103BA000F8CF9CC188E50E94AB27182F89E50E94B9
:103BB000AB27E82E8AE50E94AB27F82E85E40E9409
:103BC000AB27082F111108C0E11018C0F11022C056
:103BD000811120C611E007C0EE2011F0F11002C0E3
:103BE00010E001C0182F68E583E39EE00E94FC37D7
:103BF000E11005C0112309F406C601C010E069E513
:103C00008EEB9DE00E94FC37F11005C0112309F4F2
:103C100001C601C010E06AE589E49DE00E94FC371E
:103C2000002331F065E484ED9CE00E94FC3756C12E
:103C30001111F8CF53C158E4E52E52E0F52E8E0154
:103C40000F5F1F4F6E01F9E0CF0ED11CD7018D9190
:103C50007D010E94DA27882319F00E94482702C0BC
:103C600060E070E0F801619371938F01EC15FD0540
:103C700069F709811A816091A00F7091A10F80915D
:103C8000A20F9091A30F0115110569F00E94C07D4C
:103C9000980140E050E07B018C0168E583E39EE001
:103CA0000E94AE3708C00E94C07DAB0168E583E387
:103CB0009EE00E9465370B811C816091A40F70917A
:103CC000A50F8091A60F9091A70F0115110569F01E
:103CD0000E94C07D980140E050E07B018C0169E5C5
:103CE0008EEB9DE00E94AE3708C00E94C07DAB0104
:103CF00069E58EEB9DE00E9465370D811E81609124
:103D0000A80F7091A90F8091AA0F9091AB0F011588
:103D1000110569F00E94C07D980140E050E07B01F0
:103D20008C016AE589E49DE00E94AE3708C00E94DC
:103D3000C07DAB016AE589E49DE00E9465370F8193
:103D400018856091AC0F7091AD0F8091AE0F90917E
:103D5000AF0F0115110569F00E94C07D980140E088
:103D600050E07B018C0165E484ED9CE00E94AE375D
:103D7000B5C00E94C07DAB0165E484ED9CE00E946B
:103D80006537ACC084918F010F5F1F4F882321F0EE
:103D90000E94815BF801F6CFE9EAF6E084918F0199
:103DA0000F5F1F4F882309F499C00E94815BF801BF
:103DB000F5CF81E08093350283E50E94AB27811126
:103DC00003C00E941B6D8AC00E946927811186C0B2
:103DD000F8CF109101058091D50B181751F083E5AC
:103DE0000E94AB27082F882329F00E946927082FFB
:103DF00001C001E086E40E94DA27882319F00E94BE
:103E0000782703C060E070E0CB01123020F0812FF2
:103E10000E943B3763C020E030E040E752E40E945C
:103E2000537DAB01BC01202F812F0E94BA5C56C08C
:103E30008091010590910205892B09F04FC000ED9A
:103E400012E0D8018D918D01882319F00E94815BC9
:103E5000F8CF8AE00E94815B0E94556168E572E0BC
:103E600080E090E00E947C3087E10E949B6460E9E2
:103E700071E080E090E00E947C300E94556168E52E
:103E800072E080E090E00E947C3087E10E949B64B9
:103E90000AED12E0F80181918F01882311F40C944E
:103EA00084130E94815BF6CFE9E6FCE084918F01E8
:103EB0000F5F1F4F882321F00E94815BF801F6CF2E
:103EC000609131067091320688EB96E00E94746B27
:103ED00082E20E94815B8AE00E94815B10922B0645
:103EE00010922A060E94FC6C99C44115510519F4E0
:103EF000AF0141505109812C912C0C94350E61E099
:103F0000802F0E94792F6E2D802F0E944A2FF12C36
:103F1000B701802F0E94B52F05301105F9F6F092F8
:103F2000760BE092750BDACFE3D7F09073032F2D69
:103F300030E0220F331F890100521A4F0E94BB7DCF
:103F4000D8016D937C938F2D0E940667D1D720E016
:103F500030E04AEA52E40E94767818161CF00E947B
:103F6000D45F02C00E9416610E94DF7281E08093DC
:103F70000002188E198E1A8E1B8E18A219A21AA270
:103F80001BA21E8A1CA25CE35EA38CE18FA396E4B5
:103F900098A7C12CD12CB0E8EB2E1FEBF12E812C71
:103FA000912C54010091730310E0F801EE0FFF1FF4
:103FB000E052FA4F60817181072E000C880B990B3B
:103FC0000E947C78762E672E582E492E262F372F6A
:103FD000482F592FB601C7010E9476788823E9F04F
:103FE000000F111F000F111FF801EC55FA4F20812F
:103FF000318142815381672D762D852D942D0E942C
:104000007678881F8827881F8E8BAC8DAA2349F06D
:10401000882339F08091000261CF7C2C6D2C5E2CBE
:104020004F2C0E94B4306B017C01DC01CB0128A134
:1040300039A14AA15BA1821B930BA40BB50BB7FD61
:104040003AC0D701C60188519C4FAF4FBF4F88A3DC
:1040500099A3AAA3BBA30E947C39E7E6F2E084916E
:104060008F010F5F1F4F882321F00E94815BF801B1
:10407000F6CF81149104A104B104B9F0D501C401B3
:10408000805F984DAF4FBF4FBC01CD016C197D09CA
:104090008E099F0928EE33E040E050E00E943B7C0F
:1040A000CA01B9010E94EE5B03C08FE30E94815BED
:1040B0008AE00E94815B0E944341C8D7E09173036C
:1040C00094E0E99FF0011124EC55FA4F20803180F3
:1040D000028113819101A801672D762D852D942DE4
:1040E0000E94767C9F7781149104A104B10449F465
:1040F00020E030E040E85FE30E94767887FF0BC065
:1041000008C020E030E040E450E40E949D7E181694
:1041100014F446015701AE89AA2379F1288D398D0F
:104120004A8D5B8D211531054105510541F0D701BF
:10413000C601821B930BA40BB50BB7FD1EC09101EA
:10414000A8016CA17EA18FA198A50E94767C20E099
:1041500030E040EC5FE30E94767887FD5BCFD701CB
:10416000C601805A9541AF4FBF4F888F998FAA8F54
:10417000BB8F2CA23EA20FA318A780910002882318
:1041800009F448CF81149104A104B10429F4C72C87
:10419000D62CE52CF42C06CF90E1C91A97E2D90A67
:1041A000E108F108C818D908EA08FB08F7FE32CF81
:1041B000EECF9ED60E94BB7D6739710514F066E98B
:1041C00070E07093DD056093DC050E94BB6690D6BD
:1041D00020E030E040E85FEB0E949D7E181614F46A
:1041E0000E94166181E0809300028091D50B80933C
:1041F0007303188E198E1A8E1B8E18A219A21AA27A
:104200001BA21E8A1CA2ACE3AEA3BCE1BFA3E6E4E2
:10421000E8A7C12CD12C50E8E52E6FEBF62E812CAF
:10422000912C54016091DC057091DD05072E000C86
:10423000880B990B0E947C78162F072F782E692EF9
:10424000262F372F482F592FB601C7010E947678A5
:104250008823D1F02091A0053091A1054091A205BD
:104260005091A305612F702F872D962D0E9476788F
:10427000881F8827881F8E8BFC8DFF2349F0882399
:1042800039F0809100022ACE1C2D0D2D7E2C6F2C32
:104290000E94B4306B017C01DC01CB0128A139A163
:1042A0004AA15BA1821B930BA40BB50BB7FD3BC0CE
:1042B000D701C60188519C4FAF4FBF4F88A399A328
:1042C000AAA3BBA30E947C39EBE6F2E084912F0104
:1042D0009FEF491A590A882321F00E94815BF2015D
:1042E000F5CF81149104A104B104B9F0D501C40142
:1042F000805F984DAF4FBF4FBC01CD016C197D0958
:104300008E099F0928EE33E040E050E00E943B7C9C
:10431000CA01B9010E94EE5B03C08FE30E94815B7A
:104320008AE00E94815B0E94434190D62090A005C4
:104330003090A1054090A2055090A3059101A201E3
:10434000612F702F872D962D0E94767C9F77811488
:104350009104A104B10449F420E030E040E85FE3B7
:104360000E94767887FF0BC008C020E030E040E470
:1043700050E40E949D7E181614F446015701AE8940
:10438000AA2379F1288D398D4A8D5B8D2115310550
:104390004105510541F0D701C601821B930BA40BC7
:1043A000B50BB7FD1EC09101A2016CA17EA18FA12A
:1043B00098A50E94767C20E030E040EC5FE30E940C
:1043C000767887FD5ECFD701C601805A9541AF4F01
:1043D000BF4F888F998FAA8FBB8F2CA23EA24FA26E
:1043E00058A680910002882309F44BCF81149104D0
:1043F000A104B10429F4C12ED02EE72CF62C12CF43
:1044000090E1C91A97E2D90AE108F108C818D90859
:10441000EA08FB08F7FE35CFEECF0E94176B88E560
:104420009AD5882319F05F9A10927D0589E593D576
:10443000882319F08A9A10927E058AE58CD5882304
:1044400051F09FB7F8948091080181608093080132
:104450009FBF10927F0585E47ED5882309F43ECD69
:104460000E9440413BCD88E5A5D5882359F040D531
:1044700024E0129FF0011124E354F44F6083718310
:104480008283938389E596D5882379F0009173031D
:1044900010E02ED5000F111F000F111FF801EB5374
:1044A000F44F6083718382839383E9E6FCE0849117
:1044B0008F010F5F1F4F882321F00E94815BF8015D
:1044C000F6CFE0E0F5E084918F010F5F1F4F882366
:1044D00011F40C9467130E94815BF801F4CFACA037
:1044E000BDA01A141B040CF03DC124968CAC9DACED
:1044F000AEACBFAC2497880E991EAA1EBB1E249694
:104500002CAD3DAD4EAD5FAD2497281B390B4A0B4A
:104510005B0BCA01B901A30192010E942C7CA50189
:1045200094010E94627F48A059A06AA07BA0420E1D
:10453000531E641E751E34E1431651046104710458
:104540000CF14CEE44165104610471043CF450E843
:1045500045165104610471041CF105C05BEE452E43
:10456000512C612C712C48A259A26AA27BA28EEF19
:1045700090E0A0E0B0E084199509A609B7092C01E4
:104580003D0112C024E130E040E050E028A339A30F
:104590004AA35BA344E1442E512C612C712C04C02E
:1045A00048A259A26AA27BA2E2E7F6E084919F01A9
:1045B0002F5F3F4F882381F02F962FAF2F97609664
:1045C0003FAF60970E94815B2F962FAD2F9760962B
:1045D0003FAD6097F901EACF68A179A18AA19BA1BB
:1045E0000E94EE5BEDE6F6E084919F012F5F3F4F66
:1045F000882381F02F962FAF2F9760963FAF60975B
:104600000E94815B2F962FAD2F9760963FAD6097EC
:10461000F901EACFC301B2010E94EE5B4AA55BA596
:104620006CA57DA586E696E00E943E6B4EA55FA533
:1046300068A979A98FE596E00E943E6B4CA15DA127
:10464000433051050CF48EC0C301B2010E947C7846
:1046500020E030E040E850E40E94DB786B017C0110
:104660002AA53BA54CA55DA56EA57FA588A999A9FE
:104670000E94767C2BED3FE049E450E40E94DB7819
:1046800020E030E040E05FE30E94DB789B01AC017A
:10469000C701B6010E94537D6B017C01C501B401C5
:1046A0000E947C782FE632E143E85AE30E94DB78EF
:1046B0004B015C01B701A60189E596E00E943E6BC3
:1046C000B501A40183E596E00E943E6B2AE939E931
:1046D00049E15FE3C701B6010E94DB786B017C0111
:1046E0009B01AC010E94777CA50194010E94537D3F
:1046F0006AAB7BAB8CAB9DABA5019401C701B60146
:104700000E94DB7820E030E040E05EE30E94DB784E
:104710006EAB7FAB88AF99AFE3E4F6E084915F01C5
:104720005FEFA51AB50A882321F00E94815BF5018D
:10473000F5CFB701A6018DE396E00E943E6B4AA932
:104740005BA96CA97DA987E396E00E943E6B4EA908
:104750005FA968AD79AD81E396E00E943E6B8AE087
:104760000E94815B88A199A1AAA1BBA1840D951D7E
:10477000A61DB71DB595A795979587952C96EEAD77
:10478000FFAD2C9780832CA13DA12F5F3F4F3DA310
:104790002CA3AEA0AAA6BFA0BBA6A8A4ACA6B9A4F1
:1047A000BDA68C8C9D8CAE8CBF8C21E02BAF0C9465
:1047B0007A1B0E94176B60E08F2D0E94792F0F3FAC
:1047C000BFEF1B0759F48F2D0E94A02E31E020E08F
:1047D000892B09F030E0032F122F05C0013011059D
:1047E00061F000E010E08F2D0E94A02E801791074D
:1047F00009F474CB0E944341F6CF01E010E0F3CFFF
:10480000FF2021F0BFC9FF2029F005CA002309F4C9
:1048100065CBBFC9002309F461CB04CAC15BDF4F7C
:104820000FB6F894DEBF0FBECDBFDF91CF911F91C1
:104830000F91FF90EF90DF90CF90BF90AF909F903F
:104840008F907F906F905F904F903F902F90089542
:10485000EF92FF920F931F93CF93DF931F92CDB7E9
:10486000DEB7082F162FE3E6FBE084917F012FEFE0
:10487000E21AF20A882331F099830E94815BF701E2
:104880009981F3CFE02FF92F84917F019FEFE91AEF
:10489000F90A882321F00E94815BF701F5CF60912E
:1048A000B00F7091B10F8091B20F9091B30F0E9431
:1048B000EE5B8AE00E94815B11110E941B6D1092D9
:1048C000700510926F050F90DF91CF911F910F919E
:1048D000FF90EF900895FF920F931F93CF93DF9374
:1048E000FC0120812B3319F1D091CA05D430F8F4A2
:1048F000F62EBC01C09108050C2F10E0F0E6CF9F0A
:10490000C001112487589C4F0E949180F801E45601
:10491000FA4FF082CF5FC43018F4C093080502C08C
:1049200010920805DF5FD093CA0581E001C080E0E6
:10493000DF91CF911F910F91FF90089580E1ECE8F6
:10494000F5E0A2E9BBE001900D928A95E1F70895A8
:1049500080E1E2E9FBE0ACE8B5E001900D928A95D8
:10496000E1F70895CF92EF92FF920F931F93C090BB
:10497000D50B7B018C012EE93BE04AE95BE066E95F
:104980007BE082E99BE00E94914C1F910F91FF9088
:10499000EF90CF900895CF92DF92EF92FF920F9316
:1049A0001F93CF93DF93EC01CC0FDD1FCC0FDD1FE6
:1049B000FE01E058FA4F20E030E0A90160817181EA
:1049C000828193810E94777CFE01EF54F44F208115
:1049D0003181428153810E94777C6B017C01FE0111
:1049E000EA57F44F6083718382839383FE01EC5313
:1049F000F54F65917591859194918E010E55144FE7
:104A0000A70196010E94777CF801608371838283FD
:104A10009383FE01E053F54F6591759185919491D3
:104A2000CC5DDD4FA70196010E94777C6883798376
:104A30008A839B83DF91CF911F910F91FF90EF901D
:104A4000DF90CF9008954F925F926F927F92BF92C6
:104A5000CF92DF92EF92FF920F931F93CF93DF934A
:104A6000CDB7DEB76E970FB6F894DEBF0FBECDBFE1
:104A70006091090570910A056115710561F14DE1BB
:104A800050E0CE0101967C010E941E781E8EF70137
:104A90008F010E191F09B190BB2079F19AE0B9126C
:104AA000F7CF2BC0B70189E799E00E94746B82E2CF
:104AB0000E94815B8AE00E94815BBB20A9F10F5FAD
:104AC0001F4F8091090590910A05080F191F109337
:104AD0000A05009309058091090590910A05892B23
:104AE00009F041C18091CA05843008F03CC10E94A0
:104AF000795C9C0197FF1BC036C1F701E00FF11FE5
:104B0000108260E0C701E7DE882329F3E9E6FCE0D4
:104B100084916F012FEFC21AD20A882309F4C2CF01
:104B20000E94815BF601F4CF00E010E0D0CF982F17
:104B300000916F05109170058A3019F09D3009F0D1
:104B4000E4C0109271050115110561F2F801E15FF1
:104B5000FA4F10821092700510926F052FE035E029
:104B60007901F90180812F5F3F4F8032C9F38701BE
:104B70008E3411F0E12CF12C6AE270E0C8010E9441
:104B80007D806C01E114F10409F474C06CEA7AE0F0
:104B9000C8010E942D78BB24B394892B11F4B12C49
:104BA00009C06EE470E0C80104960E947D80009701
:104BB00009F07C014AE050E060E070E0C701019636
:104BC0000E94A27560930B0570930C0580930D05F0
:104BD00090930E054090B00F5090B10F6090B20FBF
:104BE0007090B30FFFEF4F1A5F0A6F0A7F0A6415C8
:104BF00075058605970531F0B11004C061E089E7BD
:104C00009AE03DC0C114D10401F180E0F12CF8011B
:104C1000E80FF11D90819A3219F08F5FF926F7CFD6
:104C20004AE050E060E070E0C60101960E94A27583
:104C3000CF2CD12CE12CF12C6C157D058E059F0518
:104C400041F061E08AE59AE01AC061E080E39AE011
:104C500016C080910B0590910C05A0910D05B091A7
:104C60000E058093B00F9093B10FA093B20FB09345
:104C7000B30F07C0892B29F060E086E899E0E8DDF2
:104C800072C08091350281111EC067E470E0C801D6
:104C90000E947D800097B9F04AE050E060E070E04B
:104CA00001960E94A2756430710568F4E9EBF9E0A1
:104CB00084917F012FEFE21AF20A882321F00E94EB
:104CC000815BF701F5CF65EE72E0C8010E94888034
:104CD000892B11F4109200026AEE72E0C8010E9462
:104CE0008880892B21F480EB99E00E94A55F6FEE0C
:104CF00072E0C8010E948880892B11F40E946F38ED
:104D000061E08FE095E0E7DDEDCE0F3511050CF0A9
:104D1000E9CE9C35A1F40E94795C97FDE3CE209109
:104D200071052111DFCE98012F5F3F4F3093700541
:104D300020936F05F801E15FFA4F8083D3CE9B3358
:104D400019F481E080937105809171058111CACEBB
:104D5000C80101969093700580936F05F801E15F9B
:104D6000FA4F2083BFCE6E960FB6F894DEBF0FBE0B
:104D7000CDBFDF91CF911F910F91FF90EF90DF900A
:104D8000CF90BF907F906F905F904F90089528E9EB
:104D900035E044E955E060E975E08CE895E00C9475
:104DA000066C9F92AF92BF92CF92DF92EF92FF92EA
:104DB0000F931F93CF93DF9300D01F92CDB7DEB731
:104DC000902EA12EB22ED32E7C01EE0CFF1CEE0CE9
:104DD000FF1C870104571A4FF801108211821282BA
:104DE000138249835A836B837C83D1DF49815A8143
:104DF0006B817C81F8014083518362837383C0900F
:104E0000D50B20E030E0A901692D7A2D8B2D9D2D49
:104E10000E947678811108C0F701E059F84EE590BC
:104E2000F5900591149106C0892D9A2DAB2DBD2DBD
:104E30007C018D0128E935E044E955E060E975E041
:104E40008CE895E00E94914C0E94176B1092C80567
:104E50000F900F900F900F90DF91CF911F910F91B6
:104E6000FF90EF90DF90CF90BF90AF909F9008950C
:104E70008091060590910705009731F04AE050E0D7
:104E800060E070E00C94CA7660E070E0CB010895B9
:104E90008091060590910705009731F04AE050E0B7
:104EA00060E070E00C94A27560E070E0CB010895C2
:104EB000EFDF97FD0AC0ECDF6F3F710581059105BB
:104EC00009F02CF4E5DF862F089580E008958FEF38
:104ED00008958091060590910705892B31F0E8DF50
:104EE00091E0811103C090E001C091E0892F089505
:104EF0000F931F93CF93809106059091070500971C
:104F0000F1F0FC018F01C1912C2F2F7D89F0C53468
:104F100011F0C536B9F7F801108260E070E00E9428
:104F20003C74F801C083562F472F382F292F0BC010
:104F300060E070E0CF911F910F910C943C7450E0B1
:104F400040E030E020E0652F742F832F922FCF9127
:104F50001F910F91089581548A3150F5482F50E0E8
:104F6000FA0193E0F595E7959A95E1F7E259FC4F40
:104F7000208130E08770B90102C0759567958A95E8
:104F8000E2F760FF15C0FA01EC5AFC4F20812223A2
:104F900039F08091310690913206820F911D02C046
:104FA00080E090E0909307058093060581E00895E6
:104FB00080E00895D0DF882341F081E0209106054C
:104FC00030910705232B09F480E00895EF92FF92BA
:104FD0000F931F93CF93DF937C0184E5EBDFD82FF2
:104FE000882341F165DFC82F823004F1E9E6FCE057
:104FF00084918F010F5F1F4F882321F00E94815BF6
:10500000F801F6CF8DE40E94815BB70180E090E06B
:105010004AE00E94885B6C2FCC0F770B81EB9AE003
:105020000E945B6B8AE00E94815B08C080937303DF
:10503000D0E004C08091D50B809373038D2FDF9156
:10504000CF911F910F91FF90EF9008950E94B4307F
:10505000609333067093340680933506909336063A
:105060000895CF92DF92EF92FF920F931F93CF9309
:10507000DF93E091030FF091040FC280D380E480AE
:10508000F5804681578160857185C416D506E60690
:10509000F70669F41C141D041E041F044CF520912E
:1050A000180B322F317026952170321321C02091B8
:1050B000180B24FD1DC02CB14091050550E0229530
:1050C0002695277031E02327822F817090E09195FB
:1050D00081959109842795278071992784279527A1
:1050E00080930505909104059071892309F084C08F
:1050F000E091030FF091040F82819381A481B58127
:10510000C680D780E084F1848C159D05AE05BF056F
:1051100069F41C141D041E041F0444F58091180B2F
:10512000982F917086958170981701F18091180BD6
:1051300085FD1CC08091030120910505422F50E0A0
:105140008095082F017010E022273327201B310B98
:105150002427352720723327242735272093050558
:10516000809104058072282309F056C0E091030F56
:10517000F091040F82859385A485B58518161906CC
:105180001A061B0664F58091180B82FD28C099B1A0
:1051900080910505282F30E0892F8695869591E02E
:1051A00089278170C82F80E0D82F882799278C1BEA
:1051B0009D0B8227932780749927822793278093BA
:1051C0000505909104059074892349F08091C805E4
:1051D00080648093C80582E090E00E94506A8091CC
:1051E000050580930405DF91CF911F910F91FF90EA
:1051F000EF90DF90CF9008951C141D041E041F042F
:105200000CF076CF8091C80580618093C80580E05E
:1052100090E00E94506A6CCF1C141D041E041F04F1
:105220000CF0A4CF8091C80580628093C80581E00E
:1052300090E00E94506A9ACF0F931F93CF93DF9311
:10524000C82F882319F0E1E6F9E00CC0E9E6FCE09C
:1052500084918F010F5F1F4F8823A9F30E94815B08
:10526000F801F6CF84918F010F5F1F4F882321F043
:105270000E94815BF801F6CF8AE00E94815BC11138
:105280002DC0E9E6FCE084918F010F5F1F4F88235A
:1052900021F00E94815BF801F6CFEEE4F9E0849101
:1052A0008F010F5F1F4F882321F00E94815BF8015F
:1052B000F6CF80912006882321F08AE00E94815B4E
:1052C00058C0E3E4F9E084918F010F5F1F4F8823FA
:1052D00009F44FC00E94815BF801F5CF409121068F
:1052E0005091220660912306709124068AE399E08A
:1052F0000E943E6B8AE00E94815BC1110CC0E9E60E
:10530000FCE084918F010F5F1F4F882321F00E94E2
:10531000815BF801F6CF40912506509126066091F9
:105320002706709128068EE299E00E943E6B8AE083
:105330000E94815B80912006811128C0CC2319F046
:10534000E3E2F9E00CC0E9E6FCE084918F010F5F35
:105350001F4F8823A9F30E94815BF801F6CF849147
:105360008F010F5F1F4F882389F00E94815BF80136
:10537000F6CFE9E6FCE084918F010F5F1F4F882391
:1053800009F4ACCF0E94815BF801F5CFC11124C0B4
:10539000E9E6FCE084918F010F5F1F4F882321F025
:1053A0000E94815BF801F6CFE2E1F9E084918F0180
:1053B0000F5F1F4F882321F00E94815BF801F6CF19
:1053C000E9E6FCE084918F010F5F1F4F882321F0F5
:1053D0000E94815BF801F6CF4091A00F5091A10F80
:1053E0006091A20F7091A30F8AE099E00E943E6B3A
:1053F0004091A40F5091A50F6091A60F7091A70F37
:1054000087E099E00E943E6B4091A80F5091A90F50
:105410006091AA0F7091AB0F84E099E00E943E6BFF
:105420004091AC0F5091AD0F6091AE0F7091AF0FE6
:1054300081E099E00E943E6B8AE00E94815BC1118D
:1054400024C0E9E6FCE084918F010F5F1F4F8823A1
:1054500021F00E94815BF801F6CFE3EEF8E0849141
:105460008F010F5F1F4F882321F00E94815BF8019D
:10547000F6CFE9E6FCE084918F010F5F1F4F882390
:1054800021F00E94815BF801F6CF4091590B5091B9
:105490005A0B60915B0B70915C0B8AED98E00E9457
:1054A0003E6B40915D0B50915E0B60915F0B709174
:1054B000600B87ED98E00E943E6B4091610B50912C
:1054C000620B6091630B7091640B84ED98E00E9415
:1054D0003E6B4091650B5091660B6091670B70912C
:1054E000680B81ED98E00E943E6B8AE00E94815B30
:1054F000C11124C0E9E6FCE084918F010F5F1F4FCA
:10550000882321F00E94815BF801F6CFEFEAF8E0F2
:1055100084918F010F5F1F4F882321F00E94815BD0
:10552000F801F6CFE9E6FCE084918F010F5F1F4F91
:10553000882321F00E94815BF801F6CF4091900F03
:105540005091910F6091920F7091930F86EA98E0BD
:105550000E94FE4B4091940F5091950F6091960FD1
:105560007091970F83EA98E00E94FE4B4091980F4C
:105570005091990F60919A0F70919B0F80EA98E07B
:105580000E94FE4B40919C0F50919D0F60919E0F89
:1055900070919F0F8DE998E00E94FE4B8AE00E9477
:1055A000815BC11124C0E9E6FCE084918F010F5FAB
:1055B0001F4F882321F00E94815BF801F6CFE3E5BD
:1055C000F8E084918F010F5F1F4F882321F00E9424
:1055D000815BF801F6CFE9E6FCE084918F010F5F73
:1055E0001F4F882321F00E94815BF801F6CF409184
:1055F000510B5091520B6091530B7091540B8AE4F4
:1056000098E00E943E6B4091550B5091560B609173
:10561000570B7091580B87E498E00E943E6B4091C5
:105620004D0B50914E0B60914F0B7091500B84E4D9
:1056300098E00E943E6B8AE00E94815BC11124C009
:10564000E9E6FCE084918F010F5F1F4F882321F072
:105650000E94815BF801F6CFE0EDF7E084918F01C5
:105660000F5F1F4F882321F00E94815BF801F6CF66
:10567000E9E6FCE084918F010F5F1F4F882321F042
:105680000E94815BF801F6CF4091710B5091720B33
:105690006091730B7091740B87EC97E00E943E6BE6
:1056A00040916D0B50916E0B60916F0B7091700B70
:1056B00084EC97E00E943E6B4091690B50916A0B1D
:1056C00060916B0B70916C0B81EC97E00E94FE4B2C
:1056D00040913D0B50913E0B60913F0B7091400B00
:1056E0008EEB97E00E943E6B4091410B5091420B34
:1056F0006091430B7091440B8BEB97E00E943E6BE3
:105700004091450B5091460B6091470B7091480BAF
:1057100088EB97E00E943E6B4091490B50914A0BF9
:1057200060914B0B70914C0B85EB97E00E943E6BA8
:105730008AE00E94815BC11124C0E9E6FCE084910B
:105740008F010F5F1F4F882321F00E94815BF801BA
:10575000F6CFE7EAF7E084918F010F5F1F4F8823B0
:1057600021F00E94815BF801F6CFE9E6FCE084912C
:105770008F010F5F1F4F882321F00E94815BF8018A
:10578000F6CF40918005509181056091820570911E
:1057900083058EE997E00E943E6B4091840550910D
:1057A000850560918605709187058BE997E00E94D9
:1057B0003E6B409188055091890560918A057091F2
:1057C0008B0588E997E00E943E6B8AE00E94815B2E
:1057D000CC2331F161E070E08EE797E00E945B6BD3
:1057E0004091C10B5091C20B6091C30B7091C40BDF
:1057F0008BE797E00E943E6B4091C90B5091CA0B1A
:105800006091CB0B7091CC0B88E797E00E943E6BC8
:105810008AE00E94815BC1113FC0E9E6FCE025C03F
:10582000E9E6FCE084918F010F5F1F4F882321F090
:105830000E94815BF801F6CFE7E8F7E084918F01E1
:105840000F5F1F4F882321F00E94815BF801F6CF84
:10585000E9E6FCE084918F010F5F1F4F882309F474
:10586000B9CF0E94815BF801F5CF84918F010F5F62
:105870001F4F882321F00E94815BF801F6CFE9E6F3
:10588000F7E084918F010F5F1F4F882309F44BC00D
:105890000E94815BF801F5CF00E010E0B80180E6DE
:1058A00097E00E945B6B4091190F50911A0F609125
:1058B0001B0F70911C0F8DE597E00E943E6B2CEA48
:1058C00035EC47E25EE36091150F7091160F809101
:1058D000170F9091180F0E94537DAB01BC018AE510
:1058E00097E00E94216B2CEA35EC47E25EE3609181
:1058F0001D0F70911E0F80911F0F9091200F0E941D
:10590000DB78AB01BC0187E597E00E94216B8AE060
:105910000E94815B0130110519F001E010E0BECF5B
:10592000C4EFD2E068C0E9E6FCE084918F010F5F2C
:105930001F4F882321F00E94815BF801F6CF409130
:10594000190F50911A0F60911B0F70911C0F8EE46C
:1059500097E00E943E6B2CEA35EC47E25EE36091F3
:10596000150F7091160F8091170F9091180F0E94CC
:10597000537DAB01BC018BE497E00E94216B2CEAC4
:1059800035EC47E25EE360911D0F70911E0F809130
:105990001F0F9091200F0E94DB78AB01BC0188E4BF
:1059A00097E00E94216B8AE00E94815BE9E6FCE0BF
:1059B00084918F010F5F1F4F882321F00E94815B2C
:1059C000F801F6CFEFE2F7E084918F010F5F1F4FF0
:1059D000882321F00E94815BF801F6CFE9E6FCE024
:1059E00084918F010F5F1F4F882309F499CF0E9484
:1059F000815BF801F5CF8991882319F00E94815BC2
:105A0000FACF6091A60E7091A70E8CE297E00E94EB
:105A10005B6B6091310E7091320E89E297E00E94CB
:105A20005B6B6091BC0D7091BD0D86E297E00E94AA
:105A30005B6B6091470D7091480D82E297E00E9488
:105A40005B6B6091D20C7091D30C8EE197E00E9459
:105A50005B6B8AE0DF91CF911F910F910C94815B7A
:105A6000CF92DF92EF92FF920F931F93CF93DF932A
:105A7000CDB7DEB768970FB6F894DEBF0FBECDBFC7
:105A800040EA5FE029E53BE0A0E9BFE080E090E08C
:105A9000FC01E25FF84FC590D590E590F490FA01D3
:105AA000C192D192E192F192AF01FC01E250F94F23
:105AB000C590D590E590F490F901C192D192E19210
:105AC000F1929F01FC01E251F94FC590D590E5900C
:105AD000F490CD92DD92ED92FD9204968031910585
